S01000004F70656E485232302E7372656386
S11300000C9415010C9432010C94F1150C942D0AE6
S11300100C94440A0C94C71A0C9432010C943201C7
S11300200C9432010C9432010C9432010C94AA16F3
S11300300C9432010C94E9160C9419170C944F1774
S11300400C9432010C9432010C9432010C94880209
S11300500C9432010C9432010C94470D690543054C
S11300607C059F047C057C05B6042F057C057C0576
S11300707C057C055C057C057C057C057C05E00431
S1130080B604A8047C059504E0047C051B05B20EA7
S1130090C20E71107110711071102F0F2F0F2F0FCE
S11300A02F0F2F0FA910B210B2102D11D20EE40E83
S11300B0F60E080F1A0F740F830FC50FCF11D3114B
S11300C09A139A139A139A1383122A12B412C1120E
S11300D0041262136A136A138A13DC11E811E8111B
S11300E004120412A813D712E0122057002058005B
S11300F020453A002049733A200020423A20004229
S11301004F4F540020533A200020493A20002056F3
S11301103A2000443A2000563A204F70656E485207
S113012032302053572076657273696F6E20302EFB
S11301303939206275696C64204D6179203136202B
S1130140323031352032313A30323A34332024528D
S11301506576240A000002030405060708090A3923
S113016035423E0C0D0E0F10111213141502031B11
S11301701918000128241F1B200116072016011638
S1130180201602162016031620160416201605162D
S113019020160616201607160B011F24161616160F
S11301A020160C16200E1C1C000F0F20001D2020F2
S11301B000120E1D0B0A2626200E0220200E0320FC
S11301C00E0E121C3F065B4F666D7D077F6F777CBA
S11301D0395E7971635473763008400148410949A6
S11301E05054105C00332738583E786E00001F00CE
S11301F03B005A0078009700B500D400F3001101C9
S113020030014E011F1C1F1E1F1E1F1F1E1F1E1FFD
S11302101281108103820C0205010B0204012A825F
S11302202E82308200000000000011241FBECFEF98
S1130230D4E0DEBFCDBF11E0A0E0B1E0E0E2F7E33F
S113024002C005900D92AE30B107D9F722E0AEE0BE
S1130250B1E001C01D92A13CB207E1F70E94490D33
S11302600C948E1B0C940000CF92DF92EF92FF92BD
S1130270CF93DF939B0190E0FC01EE0FFF1FEE0F85
S1130280FF1FEC5EFE4F6B01EE24D7FCE094FE2CC6
S113029040815181628173814C0D5D1D6E1D7F1DF6
S11302A04083518362837383E0910001EF3018F13E
S11302B0FC01EE0FFF1FEE0FFF1FEC5EFE4FC0911F
S11302C01C01DFE0D89FD001D99FB00D1124AC0FE1
S11302D0B11DAA0FBB1FA35EBE4FCD90DC90EE24D0
S11302E0D7FCE094FE2C4C195D096E097F0940830C
S11302F051836283738340911C015FE0589FF00136
S1130300599FF00D1124E40FF11DEE0FFF1FE35E62
S1130310FE4F31832083EC01CC0FDD1FC05FDE4F25
S1130320FC01EE0FFF1FEE0FFF1FEC5EFE4F60811E
S11303307181828193812FE030E040E050E00E949F
S1130340241B39832883DF91CF91FF90EF90DF90B6
S1130350CF90089581E080935A019CE090936400CB
S11303609CE890937A0010927B009EE590937C0029
S1130370809359010895CF93DF9380915A018F5F41
S113038080935A01833081F018F4823031F0B5C083
S1130390843011F1853061F1B0C08DE880937A002A
S11303A081E080935901AFC02091780030917900A9
S11303B040E050E060E070E381E190E00E94021BC5
S11303C0B90180E00E9434018B9A82E480937C001E
S11303D081E08093590197C08091780090917900D1
S11303E090930F0180930E0181E0809359018BC09B
S11303F0209178003091790080910E0190910F0145
S1130400AC014F5F5F4F4217530724F00197281741
S1130410390744F430930F0120930E0184E0809354
S11304205A0171C080918D0290E0939540918E02A3
S1130430BC01640F711DAB012617370784F0EFE888
S1130440F2E0C2E08191BA01680F711DCB01261759
S113045037073CF0CF5FC63029F0AB01F3CFC1E0E2
S113046001C0CA01281B390BACE0BEEF0E94491B36
S1130470D0E0FE01E357FD4F208130E040E050E042
S11304800E94241BE1E0F0E0EC1BFD0B64EF71E043
S1130490E69FC001E79F900DF69F900D11248455AF
S11304A0924FBC01620F731F81E00E94340180915E
S11304B01C0190E001966FE070E00E94EE1A8093B8
S11304C01C01892B99F48091320290E0FC01EE0F1B
S11304D0FF1FED5CFD4F2091120130911301318318
S11304E0208301968F71907880933202809100016D
S11304F08F3018F48F5F809300018B988DE0809388
S11305007A008093640080915901DF91CF9108951E
S1130510F29A1895F89490915F018091600189177F
S113052089F0E92FF0E0ED59FE4F80819F5F9F71C4
S113053090935F018A3049F490915E0191509093B9
S11305405E0103C010925E0180E078940895CF9319
S1130550DF93D82F882319F1C0E00E948A0290ED1E
S1130560980F9A3030F09FE9980F9630E8F499EAA2
S1130570980FC0FF09C0EC2FE695F0E0E55AFE4F56
S11305808081980F908308C0EC2FE695F0E0E55A3F
S1130590FE4F9295907F9083CF5FCD13DECF0E9464
S11305A08A028A3009F480E0DF91CF910895909116
S11305B062018091610198130E948D170895F89447
S11305C090916201292F30E0B9016F5F7F4F6F77FF
S11305D070784091610150E06417750741F0F901AA
S11305E0ED57FE4F80839F5F9F77909362017894CD
S11305F00895CF93DF93EC01FC018491882339F0B3
S11306000E94DF022196FE0184918111F9CFDF91CE
S1130610CF910895CF93DF93C82F843670F0D9E239
S11306208D9FD12D1124D295DF7080E38D0F0E9410
S1130630DF0284E6D89FC0191124DDECCD9FD12DB3
S11306401124D695D695D69580E38D0F0E94DF02AE
S1130650DD0F8D2F880F880FD80F8C2F8D1B805D99
S11306600E94DF02DF91CF9108950F931F93CF93E0
S1130670DF938C019C013695279536952795ABE73A
S1130680B4E10E94511BEC01D695C7958C2F0E94B2
S11306900A03802F24E6C29F801911240E940A03B2
S11306A0DF91CF911F910F910895CF93C82F829519
S11306B08F708A3020F0895A0E94DF0203C0805D67
S11306C00E94DF028C2F8F708A3020F0895A0E949A
S11306D0DF0203C0805D0E94DF02CF910895CF93B3
S11306E0C82F892F0E9455038C2F0E945503CF9148
S11306F008950E94DF028BE50E94DF0280915B0176
S11307000E9455038DE50E94DF028DE30E94DF0203
S113071008959091610180916201891751F0E92F48
S1130720F0E0ED57FE4F80819F5F9F7790936101CA
S1130730089580E008958823F1F08D3009F48AE06B
S113074090916001E92FF0E0ED59FE4F80839F5FA7
S11307509F719093600120915F01921304C09F5F89
S11307609F7190935F018A3031F4F69A80915E0113
S11307708F5F80935E01089587E191E00E94F90202
S113078080E895E20E9464170E94D7020895CF93EF
S1130790C82F83E191E00E94F9028091B70280534F
S11307A00E94550380E20E94DF028091BD020E94F4
S11307B00A038EE20E94DF028091BF020E940A03B4
S11307C08EE20E94DF028091C0020E940A0380E24E
S11307D00E94DF028091BC020E940A038AE30E9405
S11307E0DF028091B5020E940A038AE30E94DF02BD
S11307F08091BE020E940A0380E20E94DF0280917F
S11308000401882311F081E401C08DE40E94DF0219
S11308108EE091E00E94F902CC2314F08C2F02C0E8
S1130820809117020E940A0389E091E00E94F90274
S113083080911201909113010E94350384E091E0AC
S11308400E94F902809105018D3328F08FEF90E02A
S11308500E94F90206C022E3829FC00111240E9473
S113086035038AEF90E00E94F90280911001909183
S113087011010E94350384EF90E00E94F9028091F7
S11308800302909104020E946F038091090288235D
S113089041F080EF90E00E94F902809109020E94E9
S11308A05503CC2324F48DEE90E00E94F90280914C
S11308B00A02882321F08AEE90E00E94F9028AE07D
S11308C00E94DF020E94D702CF9108958F929F92D7
S11308D0BF92CF92EF92FF921F93CF93DF938091B9
S11308E05E01882309F414C1C12CCBE5D1E0BB24FB
S11308F0B3940F2EFCE58F2EF1E09F2EF02D0F2EDA
S1130900FDE5EF2EF1E0FF2EF02D0E948A02182F54
S1130910482F50E0FA01E154F109E931F10508F0FA
S1130920EBC0E25DFF4F0C94431B0E948A028A30A5
S113093009F0E8C087E191E00E94F902E3C00E9457
S11309408A028A3009F0DEC08FEF0E94C703DAC042
S113095082E00E94A7028111D2C084E50E9479033B
S113096088810E94C91A0E946F03C9C0873431F478
S113097082E00E94A7028111C2C011C084E00E94DB
S1130980A7028111BAC08881873248F4E82FF0E0C9
S1130990EB58FD4FD4019C9190830E943D08812F18
S11309A00E947903E881EF3F21F488E00E94550317
S11309B0A4C0F0E0EB58FD4F80810E9455039DC018
S11309C0823531F482E00E94A702811198C01BC0D5
S11309D086E00E94A702811190C0F40140818881C1
S11309E0242F22952F704F7050E0542F4427D701A5
S11309F09C91490F511D682F6F7082958F700E94D2
S1130A006B18C0920B02812F0E9479038881282FD2
S1130A1022952F7030E0220F331F220F331F220F35
S1130A20331F8F70F901E80FF11DCF010E94AD084B
S1130A300E946F0362C086E00E94A70281115FC01A
S1130A4088810E94D219D4018C910E94BE19F701A9
S1130A5080810E94AD198FEF0E94C70353C086E0C6
S1130A600E94A70281114BC088810E943F18D401C3
S1130A708C910E944D18F70180810E945C188FEFC1
S1130A800E94C7033FC084E00E94A702811137C0BF
S1130A9088818331A1F5D4018C91843281F5F89455
S1130AA028E088E190E00FB6F894A8958093600060
S1130AB00FBE20936000FFCF82E00E94A702811145
S1130AC01EC08B2D9881913009F08C2D0E94D50782
S1130AD016C082E00E94A702811111C0888197EF9D
S1130AE0980F953360F49AE09093010180930C027F
S1130AF08FEF0E94C70303C01C2D112319F08AE055
S1130B000E94DF020E94D70280915E018111FDCE16
S1130B10DF91CF911F91FF90EF90CF90BF909F9066
S1130B208F9008951F93CF93DF93EB01142F181622
S1130B3024F48BE20E94DF0205C088231CF48DE2BA
S1130B400E94DF0280E20E94DF02CE010E946F0356
S1130B5080E20E94DF02812F0E9455038AE00E94F6
S1130B60DF020E94D702DF91CF911F910895CF92A7
S1130B70DF92EF92FF920F931F93CF93C62F8111B1
S1130B8004C080910B0281111BC081E090910B0283
S1130B90911101C080E00E94D719882389F08093C5
S1130BA00B0290910401992359F080930C029091C7
S1130BB0010199232CF490910501891310920101EC
S1130BC010913202212F30E0205E3F4FA0910A02A3
S1130BD0AA2321F080919A0290E003C080919902A7
S1130BE090E0281B390B2F713078332334F42150D3
S1130BF03109206E3F6F2F5F3F4FB22F60E070E0EE
S1130C0040E157E22B2F30E0F901EE0FFF1FED5CBE
S1130C10FD4F80819181009741F0841795070CF472
S1130C20AC01681779070CF4BC011B1731F02F5F76
S1130C303F4F2F713078B22FE5CF209112013091C0
S1130C4013016901C41AD50A8091980290E08C15A9
S1130C509D053CF4AA23A1F010920A02109201010E
S1130C600FC0A1110DC0621B730B8091970290E01D
S1130C70861797072CF481E080930A0210920101F1
S1130C808091020190910301009729F001979093BC
S1130C900301809302018091010118161CF4815014
S1130CA0809301018091020190910301009721F04A
S1130CB040910101411131C1E0910C02EA3030F060
S1130CC040910A02442319F0EAE001C0EAE04091AD
S1130CD00501E41739F0E093050110920402109223
S1130CE0030203C0892B09F012C180917E0290E0B7
S1130CF0AC01440F551F440F551F840F951F90934B
S1130D00030180930201ED3318F0C0918102FFC00A
S1130D1042E3E49FF0011124E21BF30BE03358EFAC
S1130D20F50714F4E0E3F8EFE13D87E0F80714F089
S1130D30E0EDF7E08091050290910602009709F436
S1130D404CC0821B930B71F4CF01FF2324F488273A
S1130D5099278E1B9F0B40917D0250E0481759073D
S1130D605CF03BC0181619061CF41E161F0624F06E
S1130D7099239CF5FF238CF560917B0270E080E061
S1130D8092E30E94EE1A6E177F075CF480910302CF
S1130D9090910402680F791F709304026093030218
S1130DA01CC088279927861B970BE817F9075CF462
S1130DB08091030290910402861B970B9093040286
S1130DC0809303020AC080910302909104028E0F63
S1130DD09F1F909304028093030230930602209392
S1130DE0050210917C02112339F0612F70E080E03C
S1130DF092E30E94EE1A02C060E072E38091030263
S1130E0090910402681779072CF47093040260939C
S1130E1003020AC07195619571098617970724F436
S1130E20709304026093030220917A0230E040E060
S1130E3050E0DF01FF2324F4AA27BB27AE1BBF0B1E
S1130E400E94671B20917B0230E0322F22276B0126
S1130E507C01C20ED31EE11CF11CA7019601DF0127
S1130E600E94671BBB2797FDBA95A92F982F872F40
S1130E704091030250910402149F9001159F300D7C
S1130E8011248901222717FD2095322F080F191FDD
S1130E902A1F3B1F4091800250E0542F44276627AD
S1130EA057FD6095762FD901C801840F951FA61FA1
S1130EB0B71F813024E69207A105B1051CF0C0914B
S1130EC0810225C0BB231CF4C0917F0220C04C2F9B
S1130ED050E045039001341B1124280F391F215081
S1130EE03F4F2F3F314098F0692F772767FD7A9560
S1130EF0C09181028C2F90E08617970744F0C0912F
S1130F007F028C2F90E0681779070CF0C62F8FEFC3
S1130F10809301018C2F0E94C7038091100190914E
S1130F2011012091960254E1259F9001112482170A
S1130F30930730F480910902806C8093090215C0F4
S1130F402091950244E1249F900111248217930774
S1130F5038F4809109028F7780648093090205C078
S1130F60809109028F73809309028C2FCF911F9176
S1130F700F91FF90EF90DF90CF90089590910C0225
S1130F80890F893020F489E080930C0208C08E33E5
S1130F9018F480930C0203C08DE380930C0210922A
S1130FA00A028AE08093010108958F3F99F48091A9
S1130FB00C028093080280910B028093070281E067
S1130FC090910401911180E0809304018AE0809360
S1130FD0010124C08E3F99F48091080280930C0291
S1130FE08091070280930B0281E09091040191119A
S1130FF080E0809304018AE0809301010CC0809317
S11310000401109201010AC080E00E94D719809364
S11310100B0280930C0210920A020895809104013D
S11310208111F2CFF8CF20E08030920728F09C01A4
S113103023703327232B49F4F999FECF92BD81BD48
S113104060BDF894FA9AF99A78940895F999FECFC4
S113105092BD81BDF89A80B50895F999FECF70E0EC
S1131060605070409B0144E0849F200D311D112489
S113107032BD21BDF89A80B50895EF92FF920F9387
S11310801F93CF93DF93F82E86E28F1548F10F2D2F
S113109010E0E801CB58DD4FE88060E08F2D0E941E
S11310A02D08E816E9F0E88062E08F2D0E942D08F3
S11310B0E81638F0E88063E08F2D0E942D088E1525
S11310C028F461E08F2D0E942D088883C801880FC1
S11310D0991F880F991F6881805090400E941308BF
S11310E0DF91CF911F910F91FF90EF900895FF92A0
S11310F00F931F93CF93DF93F82E10E0C5E7D2E050
S1131100FF2031F061E0812F0E942D08888318C0F0
S113111060E0812F0E942D08082F888362E0812FD0
S11311200E942D08081738F0088163E0812F0E947F
S11311302D08801728F461E0812F0E942D088883F0
S1131140812F0E943D0821961F5F1732C9F6DF9157
S1131150CF911F910F91FF9008951F93CF93DF9329
S11311602091060130E028173907B1F0EC01CC0FCB
S1131170DD1FC852DF4FCE0101960E942608182FAA
S1131180CE010E942608212F30E0322F2227A90108
S1131190480F511DCA0104C08091730290917402DA
S11311A0DF91CF911F9108951F93CF93DF93172F52
S11311B0880F991F8038910558F4EC01C852DF4F0D
S11311C0CE010E941308612FCE0101960E941308DC
S11311D0DF91CF911F910895209110022076809184
S11311E09C02822785FF1DC0222311F0203661F462
S11311F080910E0290910F02826090930F0280936F
S11312000E02109211020BC080910E0290910F02F7
S1131210816090930F0280930E021092110220932A
S11312209C02209110022E7030911302231709F4AE
S113123087C02223A9F1311133C08091070188238B
S113124009F479C0243069F480910E0290910F0260
S1131250846090930F0280930E0281E080930D02CC
S113126043C0223069F480910E0290910F0288608D
S113127090930F0280930E0281E080930D0234C09C
S1131280283009F058C080910E0290910F028061BD
S113129090930F0280930E0281E080930D0224C08C
S11312A080910D02882379F1343071F4222359F1AD
S11312B080910E0290910F02806290930F028093AE
S11312C00E0210920D021FC0323071F42223D9F0A5
S11312D080910E0290910F02806490930F0280938C
S11312E00E0210920D020FC0383069F4222359F017
S11312F080910E0290910F02806890930F02809368
S11313000E0210920D0280910701882369F0109259
S113131007018091B2008E5C8093B300B99AE0E734
S1131320F0E0808182608083209313021092120285
S113133010921102089580910D028111D5CFE3CF4F
S1131340089580911302811118C09091110281E0D7
S1131350890F80931102811103C0909311020895A3
S1131360843109F059C080910E0290910F0290626D
S113137090930F0280930E0208952091120291E03F
S1131380920F90931202911103C0209312020895B8
S1131390943009F041C0883009F128F4823099F082
S11313A0843031F008958A3021F18E3061F108954E
S11313B080910E0290910F028062916090930F02CF
S11313C080930E02089580910E0290910F02806422
S11313D0926090930F0280930E02089580910E0202
S11313E090910F028068946090930F0280930E0294
S11313F0089580910E0290910F02986090930F02CD
S113140080930E02089580910E0290910F029061D4
S113141090930F0280930E0208952098289A00005A
S1131420000083B180952898209A80FF07C080919E
S1131430090284608093090280E008959091090272
S11314409B7F9093090281FD04C082FF04C083E066
S1131450089582E0089581E008951F920F920FB6D7
S11314600F9211248F9326982E9AF09A000083B13C
S113147080958E76809310022E98269A8F910F90E5
S11314800FBE0F901F9018950F930FB70F9301E0A5
S113149000930701009170000D7F009370000F917D
S11314A00FBF0F91189521E0833009F020E02195BA
S11314B0EDE9F2E08FEA92E02193E817F907E1F70A
S11314C081E080930801E4EEF0E0908198609083DD
S11314D080931402089580E00E94530A809175025B
S11314E08093E70085EA8093E50086E08093E60038
S11314F0E4EEF0E080EC808380818860808381E08A
S1131500809308010895EF92FF920F93CF93DF9396
S11315107B01082FC5E5D1E0FE018491662706957D
S1131520F794E79408F463E00E949F0A2196CD366D
S113153099F7DF91CF910F91FF90EF900895E82FE5
S1131540E695E695E695877021E030E0A90102C0B2
S1131550440F551F8A95E2F7CA0160FF08C0AE2FF9
S1131560B0E0A356BD4F2C91242B2C9309C0AE2F71
S1131570B0E0A356BD4F2C91342F309523232C93E8
S113158061FF07C0F0E0E356FD4F9185892B818709
S113159007C0F0E0E356FD4F91858095892381874C
S11315A06150623020F482E08093080108958091B4
S11315B008018130D1F090919D028091A602981388
S11315C009C081E090E0FC01E356FD4F30812185A4
S11315D0321721F082E08093080108950196893042
S11315E0910589F781E0809308010895BF92CF9215
S11315F0DF92EF92FF920F931F93CF93DF936430A8
S113160020F5883210F5E62FF0E0EC58FE4FD49028
S1131610E82FF0E0EC53FE4FE490CDE6D1E004E790
S113162011E0FF24F394B42EC12CFE0184918D0D9E
S11316309F2D9E2111F46C2D01C06B2D0E949F0AD9
S1131640FF0C2196C017D10781F7DF91CF911F912D
S11316500F91FF90EF90DF90CF90BF9008951F936C
S1131660CF93DF93D82FC62F142F633058F48F7085
S11316700E94F60A61E06C0F412F8D2F82958F70C6
S11316800E94F60ADF91CF911F910895CF93DF93C3
S1131690D82FC62F462F62E0892F0E942F0B4C2F84
S11316A060E08D2F0E942F0BDF91CF9108951F933F
S11316B0CF93DF93C62FD42F6330C0F48436B0F4B5
S11316C01DEC819F112D1124169516951695912FB9
S11316D0990F292F220F220F920F891B0E94F60ABD
S11316E061E06C0F4D2F812F0E94F60ADF91CF919C
S11316F01F910895FF920F931F93CF93DF93F62EBC
S1131700EC01C03187E2D80710F0CFE0D7E29E01A8
S11317103695279536952795ABE7B4E10E94511B82
S11317208C01169507954F2D62E0802F0E94570B70
S11317304F2D60E08C2F94E6099F801911240E949C
S1131740570BDF91CF911F910F91FF900895CF9286
S1131750DF92EF921F93CF93DF93162FE42E623024
S113176020F5C82FD92FC83E83E0D80710F0C7EE64
S1131770D3E052E0510F9E01369527953695279573
S1131780ABE7B4E10E94511B6C01D694C7944E2D73
S1131790652F8C2D0E94F60A4E2D612F8C2F94E616
S11317A0C99E801911240E94570BDF91CF911F917C
S11317B0EF90DF90CF9008951F93CF93DF93162F70
S11317C0EC01C9318CEFD80714F4C9E1DCEFDD2357
S11317D0F4F4882799278C1B9D0B6AE070E00E9423
S11317E0EE1ACB01412F61E00E94A70B412F63E069
S11317F086E10E94F60A05C0412F63E080E20E9460
S1131800F60A412F60E08CE00E94F60A0EC0CE0179
S11318106AE070E00E94EE1ACB01412F61E00E9461
S1131820A70BC83ED3406CF7E7CFDF91CF911F9150
S11318300895EF92FF920F931F93CF93DF93E62EB9
S113184024E0829FC0011124C0E0D0E08C0108583C
S11318501E4F0F2EF3E0FF2EF02DF801EC0FFD1FAD
S113186084916F2D6C1B4E2D0E94F60A2196C43074
S1131870D10599F760E08BE30E949F0ADF91CF9135
S11318801F910F91FF90EF900895CF93DF93C82F8E
S1131890D62F893021F48CE00E94190C2AC08D3394
S11318A021F48DE00E94190C24C08E3320F08BE0CB
S11318B00E94190C1EC0462F62E086950E94570BA9
S11318C0C0FF02C085E001C080E04D2F61E00E94AE
S11318D0F60AC43128F44D2F63E080E20E94F60A30
S11318E04D2F60E08CE00E94F60A6D2F8BE30E947E
S11318F09F0ADF91CF910895E82FF0E0EB5AFE4F55
S113190084910E949F0A0895809116028F5F8093AC
S113191016028D3048F0809115028F5F817080939C
S113192015021092160205C080911402882309F44E
S1131930A4C0109214028091150290E0FC01EE0FF5
S1131940FF1FEE0FFF1FEE0FFF1F8E0F9F1FFC01E7
S1131950E356FD4F80818093EC008091150290E066
S1131960FC01EE0FFF1FEE0FFF1FEE0FFF1F8E0F88
S11319709F1FFC01E356FD4F81818093ED00809110
S1131980150290E0FC01EE0FFF1FEE0FFF1FEE0F9C
S1131990FF1F8E0F9F1FFC01E356FD4F8281809332
S11319A0EE008091150290E0FC01EE0FFF1FEE0F98
S11319B0FF1FEE0FFF1F8E0F9F1FFC01E356FD4F0D
S11319C083818093F1008091150290E0FC01EE0F79
S11319D0FF1FEE0FFF1FEE0FFF1F8E0F9F1FFC0157
S11319E0E356FD4F84818093F2008091150290E0CC
S11319F0FC01EE0FFF1FEE0FFF1FEE0FFF1F8E0FF8
S1131A009F1FFC01E356FD4F85818093F300809175
S1131A10150290E0FC01EE0FFF1FEE0FFF1FEE0F0B
S1131A20FF1F8E0F9F1FFC01E356FD4F868180939D
S1131A30F6008091150290E0FC01EE0FFF1FEE0FFF
S1131A40FF1FEE0FFF1F8E0F9F1FFC01E356FD4F7C
S1131A5087818093F7008091150290E0FC01EE0FDE
S1131A60FF1FEE0FFF1FEE0FFF1F8E0F9F1FFC01C6
S1131A70E356FD4F80858093F80080910801813002
S1131A8029F4E4EEF0E08081877F80830895F39A5F
S1131A901895E1E6F0E080E8808391E0908380BFD0
S1131AA08FEF80937E008DE08093640088E183BB98
S1131AB08EE08DB993E09EB998E090BB93EF91BB13
S1131AC085B981ED84B98EE280936C0080EC8DBB86
S1131AD00E94751923B130E0209530952E7033277C
S1131AE081E02E30310509F080E00E94770881E022
S1131AF00E943D140E946B0A83B180958076809386
S1131B009C021EBA789488E591E00E9426088830E9
S1131B1039F063E082E10E94190C0E94840CFFCF2B
S1131B200E94BC03C6EBD0E00F2EF6E08F2EF02D02
S1131B300F2EFAE7EF2EF12CF02D992493940F2E0B
S1131B40F1ECCF2ED12CF02D0F2EF7E06F2EF02DCF
S1131B500F2EF3E07F2EF02D04EE10E00F2EFBE9A4
S1131B60AF2EF2E0BF2EF02DF8949EB3911124C055
S1131B709881977009F584B5877021F4F601808106
S1131B80887111F093BE07C080915901882311F028
S1131B9073BE01C063BE80915901882331F0109255
S1131BA05901F701808180648083729878948895C4
S1131BB00000729A83BE01C07894F39B04C0F3982A
S1131BC00E94840CD1CFF29B04C0F2980E94BB0106
S1131BD0CBCFF69B04C0F6980E946604C5CFF59B54
S1131BE004C0F5980E945215BFCFF49B08C0F49826
S1131BF00E940D0A0E943D140E94FC14B5CFF09B74
S1131C0003C0F0980E94EC08F19B3DC0F1980E943B
S1131C10221A582E609117020E94B705809317026A
S1131C20552071F08091B702863051F48091BC0246
S1131C308A3031F48091B502811102C00E943D14B2
S1131C400E940D0A0E943D14809117020E94B6144E
S1131C500E94A1098091B402882319F0F5018081C2
S1131C6081110E94AA018091090188231CF08150EE
S1131C708093090180E00E94C111F801808188608D
S1131C8080839092140220910E0230910F02232B34
S1131C9021F480910901811167CF80E00E94930EA5
S1131CA0582E882319F0892D0E94930E852D0E94A9
S1131CB0C111F8018081886080839092140254CF0E
S1131CC0CF93C82F80E00E94530A63E08C2F0E94B8
S1131CD09F0ACF910895CF93DF93C82FD62F8823DF
S1131CE0B9F060E08CE20E949F0A8FEF8C0F823083
S1131CF010F060E001C06D2F85E40E949F0AC2309D
S1131D0010F460E001C06D2F8DE20E949F0A08C0AC
S1131D108CE20E949F0A60E085E40E949F0AF1CF52
S1131D20DF91CF9108950F931F93CF93DF93209169
S1131D300E0230910F0220FD07C0A9015695479568
S1131D404170C42FC19501C0C1E09091B302492FE5
S1131D5050E04731510508F0FCC1FA01E95BFF4F3F
S1131D600C94431B882329F082E080930901D0E07E
S1131D70AFC280910901811192C281E08093B302C4
S1131D80D1E0A6C2882329F082E080930901D0E043
S1131D909FC280910901811184C28FE08093B302B4
S1131DA0D1E096C2CC2329F08091C0028C0F0E940E
S1131DB0D21980910E0282FF76C280E18093B30231
S1131DC010920B02D1E084C2CC2329F08091BF028F
S1131DD08C0F0E94BE1980910E0282FF66C281E1BF
S1131DE08093B30210920B02D1E072C2CC2329F08B
S1131DF08091BD028C0F0E94AD1980910E0282FF6A
S1131E0056C282E18093B30210920B02D1E060C209
S1131E10CC2329F08091BC028C0F0E943F18809142
S1131E200E0282FF46C283E18093B30210920B023A
S1131E30D1E04EC2CC2341F08091B5028C0F0E94B8
S1131E404D1880E00E945C1880910E0282FF33C21C
S1131E5087E08093B30210920B02D1E039C223FFD2
S1131E600CC09F5F9B3020F49093B302D1E030C24A
S1131E7087E08093B302D1E02BC280911E028823B5
S1131E8069F0277F3770232B09F417C285E080930C
S1131E9009018BE08093B302D1E01AC2CC2359F03C
S1131EA09650923050F48C2F0E94BE0786E08093A7
S1131EB0B302D1E003C0D0E001C0D0E080910E02B3
S1131EC084FF08C08FEF0E94D50786E08093B30299
S1131ED0D1E0FEC187FFFCC18EEF0E94D50786E0EA
S1131EE08093B302D1E0F4C1882351F0809194022D
S1131EF0813019F48091B70201C080E080931D0203
S1131F0085E18093B302CC2399F040911D028C2F7C
S1131F10992787FD9095840F911D08968770907876
S1131F20992324F40197886F9F6F019680931D0273
S1131F3022FF24C086E18093B3021092190281E04B
S1131F4090911D02911101C080E0809394028FE171
S1131F500E943D0880919402813019F48091B70267
S1131F6001C080E00E94A8186093AF027093B00291
S1131F708093B1029093B202D1E0AAC124FF9FC121
S1131F8087E08093B302D1E0A3C18823B9F04AE18A
S1131F9052E06091190280911D020E949318813AC7
S1131FA025E0920728F490931C0280931B0206C03C
S1131FB080EA95E090931C0280931B02CC23B9F134
S1131FC020911B0230911C02ADECBCEC0E94511B11
S1131FD09695879596958795969587959C012F5606
S1131FE03F4FA9014C0F511DC7FD5A959A01ADEF02
S1131FF0B1EE0E94511B880F892F881F990B919570
S113200061E9689F9001699F300D1124421B530BB5
S1132010CA01880F991F440F551F440F551F440FC1
S1132020551F480F591F50931C0240931B02809167
S11320300E0283FF0AC080911A0290E00596837015
S1132040907880931A02D0E043C182FF43C040914C
S11320501B0250911C0220911A0260911902809176
S11320601D020E946B18809119028F5F80931902E0
S11320708830D0F080911D02882399F095E2899FE1
S1132080912D1124282F291B2695920F969596950C
S1132090292F220F220F220F291B821B8F5F80936F
S11320A01D0285E18093B30210920B028091940289
S11320B0813019F48091B70201C080E00E94A81811
S11320C06093AF027093B0028093B1029093B20216
S11320D0D1E0FEC084FFF5C087E08093B302D1E075
S11320E0F7C0882339F0E92FF0E0EC58FD4F8081E8
S11320F080931D02CC2381F080911D02C80FC093F0
S11321001D02CE3320F08DE380931D0205C0C9303B
S113211018F489E080931D0222FF14C0E92FF0E037
S1132120EC58FD4F80911D0280838FEF890F0E9430
S11321303D088091B3028F5F8093B30210920B022B
S1132140D1E0C6C024FFBFC087E08093B302D1E0D2
S1132150BFC0809109018111B8C087E08093B302A8
S1132160D1E0B6C024FF05C087E08093B302D1E07C
S1132170AFC023FF05C08EE08093B302D1E0A8C0B6
S113218022FF10C09D3049F480910A010E943D084D
S11321908CE08093B302D0E09BC08DE08093B302C7
S11321A0D0E096C09C3051F580910A014C2F552700
S11321B047FD5095480F511D495D5F4F9A01ABE1B2
S11321C0B4EA0E94511B281B390B36952795820FC0
S11321D0931F9C0136952795329522952F702327BE
S11321E03F70232767E2629FC001639F900D112413
S11321F0481B590B40930A01D0E06AC062E0809109
S11322000A010E942D08D82F082F10E063E0809166
S11322100A010E942D08682F70E0601B710B6F5F2C
S11322207F4F40910A01E42FF0E0EB58FD4F80818D
S11322302C2F332727FD3095280F311D201B310B00
S1132240C901860F971F0E94EE1AD80FD08341113F
S11322503EC00E946B0AD0E03BC024FF05C087E06B
S11322608093B302D1E034C023FF05C08CE0809397
S1132270B302D1E02DC0209118028C2F992787FD3D
S11322809095820F911D0D966DE070E00E94EE1AFC
S113229080931802D1E0C1111BC0D0E019C0D0E076
S11322A017C0D0E015C0D0E013C0D0E011C0D0E01A
S11322B00FC0D0E00DC0D0E00BC0D0E009C0D0E02A
S11322C007C0D0E005C0D0E003C0D0E001C0D0E03A
S11322D020910E0230910F0233FF12C085E08093EB
S11322E0090181E090911E02911180E080931E0209
S11322F0882311F08BE001C087E08093B30235C0DE
S113230080911E0281111EC034FF04C08CE08093B2
S1132310B3022BC032FF04C08FE08093B30225C008
S113232030FF04C084E18093B3021FC035FF04C0B2
S113233087E08093B30219C031FF04C082E0809328
S1132340B30213C0DD2399F0C0910A01C73278F4B7
S113235060E08C2F0E942D08EC2FF0E0EB58FD4F2D
S1132360808387E280930A0102C0D1E0EDCF10920E
S11323700F0210920E028D2FDF91CF911F910F91BA
S11323800895CF93C82F4091B30250E047315105CF
S113239008F0DEC1FA01E25AFF4F0C94431B83E0BC
S11323A00E94530AD5C18BE30E94600E63E089E961
S11323B090EF0E94460BCCC180E00E94530A8091AA
S11323C0C00290E061E08053984F0E947A0BC0C134
S11323D08BE30E94600E8091B302803111F441E0DE
S11323E001C043E060E08091BF020E94570B8091DE
S11323F0B302813111F441E001C043E062E0809115
S1132400BD020E94570BA4C1882359F080E00E94AA
S1132410530A63E08BE30E949F0A63E083E20E9415
S11324209F0A8091B302823111F441E001C043E07C
S113243062E08091BC020E94570B8091B302833109
S113244011F441E001C043E060E08091B5020E94D4
S1132450570B7EC180910D01181644F58BE00E9444
S1132460600E43E063E08AE00E94F60A80918B02EA
S113247090918C02019629F443E062E08DE00E9481
S1132480F60A80910D0197E68902912D1124959504
S1132490959587FD9395990F292F220F220F920F5F
S11324A043E060E0891B0E94F60A37C0CC2319F090
S11324B08BE00E94600E809109028823D9F02CF4ED
S11324C061E08FE00E94190C28C082FF05C063E020
S11324D080E10E94190C21C083FF05C063E081E103
S11324E00E94190C1AC086FF18C063E08FE00E9496
S11324F0190C13C080910A02882329F063E08EE04E
S11325000E94190C0AC0CC2319F08BE00E94600EC3
S113251063E080910C020E94450C809104018823A1
S113252041F090910B0280910C02981721F060E029
S113253003C060E001C063E088E10E949F0A8091CB
S11325400401882311F060E001C063E082E30E948B
S11325509F0A6091AF027091B0028091B102909194
S1132560B2020E94830AF4C0882319F08BE30E940C
S1132570600E63E080911201909113010E94DC0BC4
S1132580E7C0882319F080E00E94530A0E948E1449
S1132590853640F40E948E1443E060E090E00E948F
S11325A0A70BD6C063E08AE00E94190CD1C08AE16F
S11325B00E94600E61E080911D020E94190CC8C047
S11325C080E00E94530A63E08BE30E949F0A63E069
S11325D083E20E949F0A63E08AE10E949F0A80913D
S11325E01D02282F220F220F220F90911902920F01
S11325F09093060140911A0250E0542F44275295BB
S1132600507F20911B0230911C02240F351F309300
S11326107402209373020E94A8180E94830A8FEF09
S11326208093060120911B0230911C02A9E8B8E8AE
S11326300E94511B96958795929582958F70892754
S11326409F70892761E00E947C0C20911B023091CD
S11326501C02203A85E0380758F5A9E8B8E80E943A
S1132660511B96958795929582958F7089279F70B7
S1132670892741E062E00E94570B50911B02309180
S11326801C02252FA9E8B8E80E94511B969587954E
S1132690929582958F7089279F70892741E060E029
S11326A02CE3829F50191124852F0E94570B04C0DC
S11326B061E089E00E94190C61E080911A020E9495
S11326C06B0E46C080E00E94530A63E088E00E94DB
S11326D0190C3EC083E00E94530A8091B3028C30EF
S11326E011F441E001C043E062E080910A010E94DC
S11326F02F0B8091B3028D3011F441E001C043E00F
S1132700E0910A01F0E0EB58FD4F60E080810E9407
S11327102F0B1EC083E00E94530A809118020E946E
S1132720C91A63E00E94460B61E0809118020E947E
S11327307C0C0EC08BE30E94600E61E080911D0250
S11327400E94450C8091B30263E082500E946B0E9C
S1132750CF910895CF93C82F811116C010926E00A7
S1132760EBE6F0E080818F7E80837398649B02C0E7
S113277089E501C089E70E94DF0214BA2F9888E432
S113278084BD1092B40277C08091B4028C1709F40E
S113279072C08091B402882389F0109229021092A9
S11327A02802109223021092220210922102109207
S11327B0200282E080930B011092B402C093B40211
S11327C0739A4091880250E080910D01811104C0F8
S11327D06091870270E003C06091860270E0649F9C
S11327E09001659F300D749F300D11243695279507
S11327F036952795ABE7B4E10E94511B96958795D2
S11328009C01220F331F220F331F220F331F3093DB
S11328102702209326022091260230912702220FBC
S1132820331F220F331F309325022093240281E0AB
S113283085BB16BC80936E008CB180931F02EBE6BF
S1132840F0E08081806180838091830287BDCF3FE7
S113285031F488E084BB2F9889E684BD05C080E10B
S113286084BB2F9A89E784BD649B02C088E501C0BC
S113287088E70E94DF02CF910895CF93C82F81117A
S113288017C080E00E94AA13109231021092300205
S113289010922F0210922E028EEF80930D0185E08C
S11328A080930C0180910902877F8093090234C0D0
S11328B080910C01882321F0815080930C0110C079
S11328C080910D01813061F482E080930D0128EE46
S11328D033E030932D0220932C0281E00E94AA134E
S11328E080910D018E3FC1F4C33069F48FEF9FEFE7
S11328F090938C0280938B0286E10E943D0887E1CD
S11329000E943D0806C0C23021F410928C0210923D
S11329108B0281E080930D01CF91089520912E02C6
S113292030912F022B303105ECF080910D01811193
S11329301BC04091300250913102FA01EE0FFF1F8B
S1132940440F551F440F551F440F551FE40FF51F27
S1132950C9016AE070E00E94EE1ACF010E94EE1AEB
S1132960862F08958FEF08958FEF089590910D01AC
S1132970911141C0843649F480912E0290912F0226
S113298090932D0280932C021DC0811105C01092DA
S11329902D0210922C0216C040912E0250912F024B
S11329A05595479555954795849F9001859F300D82
S11329B01124C90169E170E00E94EE1A70932D029E
S11329C060932C028091B402811115C020913002D1
S11329D03091310280912C0290912D02821793073D
S11329E024F48FEF0E94AA130895281739071CF4C2
S11329F081E00E94AA13089580912A0290912B02EB
S1132A0081329E4408F044C080910B0181113DC085
S1132A1020912A0230912B022C5F3F4F3695279547
S1132A20369527953695279580918802281B31097C
S1132A3040918902429FC001439F900D112464E696
S1132A4070E00E94EE1A80918A0290E08617970740
S1132A504CF022273327281B390BCB01621773074D
S1132A600CF4C90127B5820F911D2091830230E037
S1132A702817390744F04091820250E09C018417E2
S1132A8095070CF49A0127BD03C0815080930B0174
S1132A9047B560912A0270912B028091B4020E9482
S1132AA092050895CF93DF93C091B40280E00E9411
S1132AB0AA138091240290912502892B71F08091B0
S1132AC00D01882309F47BC08FEF80930D01809161
S1132AD009028860809309026EC0C13009F041C0C8
S1132AE0C0913002D091310280910D01823081F584
S1132AF0D0932F02C0932E0280918B0290918C026E
S1132B00892BC9F4C436D1056CF0D0938C02C093E0
S1132B108B0286E10E943D0887E10E943D081092E5
S1132B200D014DC08FEF80930D01809109028860E3
S1132B308093090240C08FEF0E94AA13C85ED3405D
S1132B40D0932D02C0932C0283E080930D0146C0E4
S1132B5080912E0290912F02909331028093300243
S1132B602AC0CF3F41F580910D01833089F4109242
S1132B700D01209130023091310280912E0290910A
S1132B802F02821B930B90932F0280932E020FC06F
S1132B9080913002909131028536910544F08FEF97
S1132BA080930D018091090288608093090210923C
S1132BB031021092300280910D0181110FC0809179
S1132BC02E0290912F028436910544F48FEF809366
S1132BD00D0180910902886080930902DF91CF91F1
S1132BE008951F920F920FB60F9211242F933F93C3
S1132BF04F935F936F937F938F939F93AF93BF9301
S1132C00CF93EF93FF93CCB1C0FD0AC0E1ECF0E0A9
S1132C10808180698083EBE6F0E080818E7F808311
S1132C2080916B0084FF82C080911F028C2784FFF7
S1132C307DC0809128029091290220912202309136
S1132C402302821B930B2091280230912902309396
S1132C50230220932202C4FD5EC02091850230E04D
S1132C60220F331F2817390708F060C08091200213
S1132C70909121022091840230E0220F331F281703
S1132C80390708F044C02091B40280913002909139
S1132C903102820F911D27FD9A9590933102809302
S1132CA03002809128029091290290932B02809304
S1132CB02A021092210210922002109229021092EC
S1132CC028021092230210922202F49A20913002D8
S1132CD03091310280912C0290912D0228173907EE
S1132CE069F414BA2F9888E484BDF59AEBE6F0E011
S1132CF080818F7E808310926E0018C0809126029E
S1132D009091270290932502809324020FC08EE7AE
S1132D100E94DF020BC0209120023091210228176B
S1132D20390720F49093210280932002C0931F025C
S1132D30FF91EF91CF91BF91AF919F918F917F912F
S1132D406F915F914F913F912F910F900FBE0F9014
S1132D501F9018951F920F920FB60F9211248F9304
S1132D609F93EF93FF938091240290912502892BE6
S1132D7099F080912802909129020196909329025A
S1132D8080932802809124029091250201979093C8
S1132D9025028093240214C0809128029091290274
S1132DA090932B0280932A0214BA2F9888E484BD4E
S1132DB0F59AEBE6F0E080818F7E808310926E00BE
S1132DC0FF91EF919F918F910F900FBE0F901F90E5
S1132DD018951F920F920FB60F9211242F933F93C1
S1132DE04F935F936F937F938F939F93AF93BF930F
S1132DF0EF93FF938091C6000E949B03E1ECF0E007
S1132E0080818F768083EBE6F0E08081816080832F
S1132E10FF91EF91BF91AF919F918F917F916F91AE
S1132E205F914F913F912F910F900FBE0F901F9084
S1132E3018951F920F920FB60F9211242F933F9360
S1132E404F935F936F937F938F939F93AF93BF93AE
S1132E50EF93FF930E948903882319F08093C6009F
S1132E600DC0E1ECF0E080818F7D8083A0ECB0E0C8
S1132E708C9180648C93808180648083FF91EF9136
S1132E80BF91AF919F918F917F916F915F914F917E
S1132E903F912F910F900FBE0F901F9018951F9286
S1132EA00F920FB60F9211248F93EF93FF93E1ECDF
S1132EB0F0E08081877B8083FF91EF918F910F9069
S1132EC00FBE0F901F901895A0E0B0E0880F991FD7
S1132ED0AA1FBB1F880F991FAA1FBB1F9C01AD010E
S1132EE0220F331F441F551F220F331F441F551F2A
S1132EF060E079E08DE390E00E94021B21503109EB
S1132F003093C5002093C40086E08093C200EBE6B2
S1132F10F0E08081816080830895F8948091C100FD
S1132F2085FD0DC0E1ECF0E080818F7B8083A0EC17
S1132F30B0E08C9180648C938081886280837894E3
S1132F4008959091BF02E92FF0E0ED5FFD4F849169
S1132F50923029F49091C002937009F48DE10895A0
S1132F608091B7028730A1F48091BF02833039F495
S1132F7081E09091BD02993170F480E008958A3027
S1132F8049F481E09091BD02983128F480E00895DD
S1132F9080E0089580E008954F925F926F927F924F
S1132FA08F929F92AF92BF92CF92DF92EF92FF9255
S1132FB00F931F93CF93DF93482E8B01811137C05A
S1132FC06894BB24B1F836C0092D1A2D642C660C04
S1132FD0660C660C6894552453F8560C6514B0F4CA
S1132FE0C72DD82D862D90E00E94AD089F70803AA1
S1132FF025E0920740F48C179D0728F0081719075D
S113300010F0C62CEC0163945610ECCFCC202CF5B8
S1133010442049F0842D90E00596B7010E94EE1AF1
S113302044244394480ED394DB1470F216C068947D
S1133030BB24B3F8D12CCC24CA94712C812C0F2E30
S1133040F7E0EF2EF12CF02D0F2EF0EA9F2EF02D4D
S11330500F2EF5E0AF2EF02DB9CF8C2DDF91CF914F
S11330601F910F91FF90EF90DF90CF90BF90AF90A2
S11330709F908F907F906F905F904F900895885E9F
S11330809BEA899F912D112492959F7028E1929F2C
S1133090801911248093BC020895845C99E8899F67
S11330A0912D11249295969597702CE3929F8019F7
S11330B011248093B5020895845C99E8899F912D29
S11330C011249295969597702CE3929F8019112460
S11330D08093BE020895883000F5683000F52430EE
S11330E000F54C3D95E0590710F04FEF5FE0E22FFB
S11330F0F0E0FE2FEE27F295F07F4E2B5F2B262F6C
S113310030E0BA01A901E8E08E9F400D511D112461
S1133110CA010E94D40881E0089580E0089580E007
S1133120089580E00895CF93DF93EA0170E09B0156
S113313048E0849F200D311D1124C9010E94AD086F
S1133140292F22952F7028839F70DF91CF910895A6
S11331505F926F927F928F929F92AF92BF92CF9223
S1133160DF92EF92FF920F931F93CF93DF93A82EDA
S1133170C12CD12C760117E160EA75E0512C612C49
S1133180BB24B394712C88248A9499249A940CE3D4
S1133190EB018A2D0E94CC17882334F0992787FDF0
S11331A090950E94AD0802C0852D962D4B2D9C0153
S11331B0222730732115304208F4472D9F708C1755
S11331C09D0720F4BC016150710902C0682D792D5E
S11331D01003C0011124681779078CF4442311F0FB
S11331E06894C0F8111624F4CC0CDD1CEE1CFF1CF2
S11331F01150100390011124621773077CF3161603
S1133200170634F2C701B601DF91CF911F910F91D8
S1133210FF90EF90DF90CF90BF90AF909F908F90F2
S11332207F906F905F9008958091BF02E82FF0E047
S1133230EE0FFF1FE651FE4F459154919091BD0250
S1133240FA01E90FF11D833028F08091C0028370E8
S113325009F431962091C00230E0C9010197AC0114
S1133260992314F44D5F5F4F5595479555954795B0
S1133270240F351F64E670E00E94EE1AA901461B74
S1133280570B4B5F5F4F4E0F5F1F9A01A3E9B4E2E8
S11332900E94511B281B390B36952795820F931FCB
S11332A096958795969587959C01220F331F220F3B
S11332B0331F220F331FB901681B790B461B570BB1
S11332C04F5F4093B70280919402813011F080E007
S11332D001C0842F0E94A8186093AF027093B002BB
S11332E08093B1029093B2020895E0E7F0E0808108
S11332F08E7F808388E08093B6001092B200E0EB6A
S1133300F0E0808185608083E6EBF0E0808190814D
S113331094708170892BD1F78FEF87BBE0E7F0E0E1
S11333208081816080831092B8021092B902109259
S1133330BA021092BB028CE08093BC021092B502D8
S11333401092BE0281E08093BD028093BF0289E0A7
S11333508093C0020E9414190895CF93C82F0E942D
S1133360A117682FC1508C2F860F0E94E21A9F5F0D
S11333709093BD020E941419CF910895855F9BEA32
S1133380899F912D1124969596959695292F220F14
S1133390920F990F990F891B8F5F8093BF020E9430
S11333A0141908958093C0020E9414190895FF927D
S11333B00F931F93CF93DF93F82E9091BC02C0918B
S11333C0B502D0E08CE3989FC00DD11D11249091DB
S11333D09402913019F40091B70201C000E0BE01DB
S11333E0802F0E94CC17182F992787FD90950E9453
S11333F0AD081123E4F0FF2079F0AC015F704C17A5
S11334005D07B9F4212F112314F427E0210F25952A
S11334102595259502130FC0FC01EF2FFF27E29598
S1133420EF70E370FF27EA58FD4F808105C080E00C
S113343003C080E001C080E0DF91CF911F910F9124
S1133440FF9008958091B8029091B902A091BA02B8
S1133450B091BB020196A11DB11D8093B802909357
S1133460B902A093BA02B093BB028091BE028F5FEF
S11334708C3320F48093BE0280E008951092BE0243
S11334808091B5028F5F8C3320F48093B50281E084
S113349008951092B5028091BC028F5F883118F4B0
S11334A08093BC0245C01092BC020E94A117909167
S11334B0BD029F5F891718F09093BD0215C081E08B
S11334C08093BD028091BF028F5F8D3018F480938A
S11334D0BF0208C081E08093BF028091C0028F5F69
S11334E08093C0021092B6028091B70225E2829FB7
S11334F0212D1124982F921B9695920F96959695AF
S1133500292F220F220F220F291B821B8F5F8093EA
S1133510B70290919402913009F080E00E94A818BB
S11335206093AF027093B0028093B1029093B202A1
S11335308091BF02833061F48091BC02823029F50E
S11335400E94B017882309F183E08093BC021DC058
S11335508A3099F48091BC02833089F48091B60258
S113356081110FC00E94B017882369F082E0809314
S1133570BC0281E08093B602089581E0089581E061
S1133580089581E0089581E0089581E00895F19A15
S113359018958D30A0F4E82FF0E0EE0FFF1FE05FE8
S11335A0FD4F8591949199232CF4FC01FF77808140
S11335B091810895FC01FF77808190E0089580E077
S11335C090E00895991B79E004C0991F961708F0BC
S11335D0961B881F7A95C9F78095089597FB072E47
S11335E016F4009407D077FD09D00E946F1B07FCE6
S11335F005D03EF4909581959F4F089570956195FF
S11336007F4F0895A1E21A2EAA1BBB1BFD010DC01A
S1133610AA1FBB1FEE1FFF1FA217B307E407F5077E
S113362020F0A21BB30BE40BF50B661F771F881F5A
S1133630991F1A9469F760957095809590959B01F0
S1133640AC01BD01CF010895052E97FB1EF4009433
S11336500E943B1B57FD07D00E94021B07FC03D0AE
S11336604EF40C943B1B50954095309521953F4F5B
S11336704F4F5F4F089590958095709561957F4F5A
S11336808F4F9F4F0895EE0FFF1F0590F491E02D8B
S113369009940E94511B332312F48A1B9B0B0C9434
S11336A0621BA29FB001B39FC001A39F700D811D37
S11336B01124911DB29F700D811D1124911D089537
S11336C00E94511BB7FF0895821B930B0895B7FF07
S11336D00C94831B0E94831B821B930B0895AA1BCB
S11336E0BB1B51E107C0AA1FBB1FA617B70710F0E9
S11336F0A61BB70B881F991F5A95A9F7809590951B
S1133700BC01CD0108950E94511BA59F900DB49F4B
S1133710900DA49F800D911D11240895F894FFCF5E
S11137200110100001FFFF010102270205FE47
S9030000FC
